{
  "_format": "hh-sol-artifact-1",
  "contractName": "BearBucks",
  "sourceName": "contracts/BearBucks.sol",
  "abi": [
    {
      "inputs": [],
      "stateMutability": "nonpayable",
      "type": "constructor"
    },
    {
      "inputs": [
        {
          "internalType": "address",
          "name": "spender",
          "type": "address"
        },
        {
          "internalType": "uint256",
          "name": "allowance",
          "type": "uint256"
        },
        {
          "internalType": "uint256",
          "name": "needed",
          "type": "uint256"
        }
      ],
      "name": "ERC20InsufficientAllowance",
      "type": "error"
    },
    {
      "inputs": [
        {
          "internalType": "address",
          "name": "sender",
          "type": "address"
        },
        {
          "internalType": "uint256",
          "name": "balance",
          "type": "uint256"
        },
        {
          "internalType": "uint256",
          "name": "needed",
          "type": "uint256"
        }
      ],
      "name": "ERC20InsufficientBalance",
      "type": "error"
    },
    {
      "inputs": [
        {
          "internalType": "address",
          "name": "approver",
          "type": "address"
        }
      ],
      "name": "ERC20InvalidApprover",
      "type": "error"
    },
    {
      "inputs": [
        {
          "internalType": "address",
          "name": "receiver",
          "type": "address"
        }
      ],
      "name": "ERC20InvalidReceiver",
      "type": "error"
    },
    {
      "inputs": [
        {
          "internalType": "address",
          "name": "sender",
          "type": "address"
        }
      ],
      "name": "ERC20InvalidSender",
      "type": "error"
    },
    {
      "inputs": [
        {
          "internalType": "address",
          "name": "spender",
          "type": "address"
        }
      ],
      "name": "ERC20InvalidSpender",
      "type": "error"
    },
    {
      "inputs": [
        {
          "internalType": "address",
          "name": "owner",
          "type": "address"
        }
      ],
      "name": "OwnableInvalidOwner",
      "type": "error"
    },
    {
      "inputs": [
        {
          "internalType": "address",
          "name": "account",
          "type": "address"
        }
      ],
      "name": "OwnableUnauthorizedAccount",
      "type": "error"
    },
    {
      "anonymous": false,
      "inputs": [
        {
          "indexed": true,
          "internalType": "address",
          "name": "owner",
          "type": "address"
        },
        {
          "indexed": true,
          "internalType": "address",
          "name": "spender",
          "type": "address"
        },
        {
          "indexed": false,
          "internalType": "uint256",
          "name": "value",
          "type": "uint256"
        }
      ],
      "name": "Approval",
      "type": "event"
    },
    {
      "anonymous": false,
      "inputs": [
        {
          "indexed": true,
          "internalType": "address",
          "name": "previousOwner",
          "type": "address"
        },
        {
          "indexed": true,
          "internalType": "address",
          "name": "newOwner",
          "type": "address"
        }
      ],
      "name": "OwnershipTransferred",
      "type": "event"
    },
    {
      "anonymous": false,
      "inputs": [
        {
          "indexed": true,
          "internalType": "address",
          "name": "from",
          "type": "address"
        },
        {
          "indexed": true,
          "internalType": "address",
          "name": "to",
          "type": "address"
        },
        {
          "indexed": false,
          "internalType": "uint256",
          "name": "value",
          "type": "uint256"
        }
      ],
      "name": "Transfer",
      "type": "event"
    },
    {
      "inputs": [
        {
          "internalType": "address",
          "name": "owner",
          "type": "address"
        },
        {
          "internalType": "address",
          "name": "spender",
          "type": "address"
        }
      ],
      "name": "allowance",
      "outputs": [
        {
          "internalType": "uint256",
          "name": "",
          "type": "uint256"
        }
      ],
      "stateMutability": "view",
      "type": "function"
    },
    {
      "inputs": [
        {
          "internalType": "address",
          "name": "spender",
          "type": "address"
        },
        {
          "internalType": "uint256",
          "name": "value",
          "type": "uint256"
        }
      ],
      "name": "approve",
      "outputs": [
        {
          "internalType": "bool",
          "name": "",
          "type": "bool"
        }
      ],
      "stateMutability": "nonpayable",
      "type": "function"
    },
    {
      "inputs": [
        {
          "internalType": "address",
          "name": "account",
          "type": "address"
        }
      ],
      "name": "balanceOf",
      "outputs": [
        {
          "internalType": "uint256",
          "name": "",
          "type": "uint256"
        }
      ],
      "stateMutability": "view",
      "type": "function"
    },
    {
      "inputs": [],
      "name": "decimals",
      "outputs": [
        {
          "internalType": "uint8",
          "name": "",
          "type": "uint8"
        }
      ],
      "stateMutability": "view",
      "type": "function"
    },
    {
      "inputs": [
        {
          "internalType": "address",
          "name": "user",
          "type": "address"
        }
      ],
      "name": "getUserAssets",
      "outputs": [
        {
          "internalType": "string",
          "name": "",
          "type": "string"
        },
        {
          "internalType": "bool",
          "name": "",
          "type": "bool"
        },
        {
          "internalType": "bool",
          "name": "",
          "type": "bool"
        },
        {
          "internalType": "uint256",
          "name": "",
          "type": "uint256"
        }
      ],
      "stateMutability": "view",
      "type": "function"
    },
    {
      "inputs": [
        {
          "internalType": "address",
          "name": "user",
          "type": "address"
        }
      ],
      "name": "incrementAttendance",
      "outputs": [],
      "stateMutability": "nonpayable",
      "type": "function"
    },
    {
      "inputs": [
        {
          "internalType": "address",
          "name": "to",
          "type": "address"
        },
        {
          "internalType": "uint256",
          "name": "amount",
          "type": "uint256"
        }
      ],
      "name": "mint",
      "outputs": [],
      "stateMutability": "nonpayable",
      "type": "function"
    },
    {
      "inputs": [],
      "name": "name",
      "outputs": [
        {
          "internalType": "string",
          "name": "",
          "type": "string"
        }
      ],
      "stateMutability": "view",
      "type": "function"
    },
    {
      "inputs": [],
      "name": "owner",
      "outputs": [
        {
          "internalType": "address",
          "name": "",
          "type": "address"
        }
      ],
      "stateMutability": "view",
      "type": "function"
    },
    {
      "inputs": [],
      "name": "renounceOwnership",
      "outputs": [],
      "stateMutability": "nonpayable",
      "type": "function"
    },
    {
      "inputs": [
        {
          "internalType": "address",
          "name": "user",
          "type": "address"
        },
        {
          "internalType": "string",
          "name": "studentId",
          "type": "string"
        },
        {
          "internalType": "bool",
          "name": "ticketAccess",
          "type": "bool"
        },
        {
          "internalType": "bool",
          "name": "doorAccess",
          "type": "bool"
        },
        {
          "internalType": "uint256",
          "name": "attendance",
          "type": "uint256"
        }
      ],
      "name": "setUserAssets",
      "outputs": [],
      "stateMutability": "nonpayable",
      "type": "function"
    },
    {
      "inputs": [
        {
          "internalType": "address",
          "name": "user",
          "type": "address"
        },
        {
          "internalType": "string",
          "name": "email",
          "type": "string"
        },
        {
          "internalType": "string",
          "name": "encryptedPassword",
          "type": "string"
        }
      ],
      "name": "setUserCredentials",
      "outputs": [],
      "stateMutability": "nonpayable",
      "type": "function"
    },
    {
      "inputs": [],
      "name": "symbol",
      "outputs": [
        {
          "internalType": "string",
          "name": "",
          "type": "string"
        }
      ],
      "stateMutability": "view",
      "type": "function"
    },
    {
      "inputs": [],
      "name": "totalSupply",
      "outputs": [
        {
          "internalType": "uint256",
          "name": "",
          "type": "uint256"
        }
      ],
      "stateMutability": "view",
      "type": "function"
    },
    {
      "inputs": [
        {
          "internalType": "address",
          "name": "to",
          "type": "address"
        },
        {
          "internalType": "uint256",
          "name": "value",
          "type": "uint256"
        }
      ],
      "name": "transfer",
      "outputs": [
        {
          "internalType": "bool",
          "name": "",
          "type": "bool"
        }
      ],
      "stateMutability": "nonpayable",
      "type": "function"
    },
    {
      "inputs": [
        {
          "internalType": "address",
          "name": "from",
          "type": "address"
        },
        {
          "internalType": "address",
          "name": "to",
          "type": "address"
        },
        {
          "internalType": "uint256",
          "name": "value",
          "type": "uint256"
        }
      ],
      "name": "transferFrom",
      "outputs": [
        {
          "internalType": "bool",
          "name": "",
          "type": "bool"
        }
      ],
      "stateMutability": "nonpayable",
      "type": "function"
    },
    {
      "inputs": [
        {
          "internalType": "address",
          "name": "newOwner",
          "type": "address"
        }
      ],
      "name": "transferOwnership",
      "outputs": [],
      "stateMutability": "nonpayable",
      "type": "function"
    },
    {
      "inputs": [
        {
          "internalType": "address",
          "name": "",
          "type": "address"
        }
      ],
      "name": "userAssets",
      "outputs": [
        {
          "internalType": "string",
          "name": "studentId",
          "type": "string"
        },
        {
          "internalType": "bool",
          "name": "ticketAccess",
          "type": "bool"
        },
        {
          "internalType": "bool",
          "name": "doorAccess",
          "type": "bool"
        },
        {
          "internalType": "uint256",
          "name": "attendance",
          "type": "uint256"
        }
      ],
      "stateMutability": "view",
      "type": "function"
    },
    {
      "inputs": [
        {
          "internalType": "address",
          "name": "",
          "type": "address"
        }
      ],
      "name": "userCredentials",
      "outputs": [
        {
          "internalType": "string",
          "name": "email",
          "type": "string"
        },
        {
          "internalType": "string",
          "name": "encryptedPassword",
          "type": "string"
        }
      ],
      "stateMutability": "view",
      "type": "function"
    }
  ],
  "bytecode": "0x608060405234801561001057600080fd5b50336040518060400160405280600981526020017f426561724275636b7300000000000000000000000000000000000000000000008152506040518060400160405280600381526020017f4252420000000000000000000000000000000000000000000000000000000000815250816003908161008d919061043d565b50806004908161009d919061043d565b505050600073ffffffffffffffffffffffffffffffffffffffff168173ffffffffffffffffffffffffffffffffffffffff16036101125760006040517f1e4fbdf70000000000000000000000000000000000000000000000000000000081526004016101099190610550565b60405180910390fd5b6101218161012760201b60201c565b5061056b565b6000600560009054906101000a900473ffffffffffffffffffffffffffffffffffffffff16905081600560006101000a81548173ffffffffffffffffffffffffffffffffffffffff021916908373ffffffffffffffffffffffffffffffffffffffff1602179055508173ffffffffffffffffffffffffffffffffffffffff168173ffffffffffffffffffffffffffffffffffffffff167f8be0079c531659141344cd1fd0a4f28419497f9722a3daafe3b4186f6b6457e060405160405180910390a35050565b600081519050919050565b7f4e487b7100000000000000000000000000000000000000000000000000000000600052604160045260246000fd5b7f4e487b7100000000000000000000000000000000000000000000000000000000600052602260045260246000fd5b6000600282049050600182168061026e57607f821691505b60208210810361028157610280610227565b5b50919050565b60008190508160005260206000209050919050565b60006020601f8301049050919050565b600082821b905092915050565b6000600883026102e97fffffffffffffffffffffffffffffffffffffffffffffffffffffffffffffffff826102ac565b6102f386836102ac565b95508019841693508086168417925050509392505050565b6000819050919050565b6000819050919050565b600061033a6103356103308461030b565b610315565b61030b565b9050919050565b6000819050919050565b6103548361031f565b61036861036082610341565b8484546102b9565b825550505050565b600090565b61037d610370565b61038881848461034b565b505050565b5b818110156103ac576103a1600082610375565b60018101905061038e565b5050565b601f8211156103f1576103c281610287565b6103cb8461029c565b810160208510156103da578190505b6103ee6103e68561029c565b83018261038d565b50505b505050565b600082821c905092915050565b6000610414600019846008026103f6565b1980831691505092915050565b600061042d8383610403565b9150826002028217905092915050565b610446826101ed565b67ffffffffffffffff81111561045f5761045e6101f8565b5b6104698254610256565b6104748282856103b0565b600060209050601f8311600181146104a75760008415610495578287015190505b61049f8582610421565b865550610507565b601f1984166104b586610287565b60005b828110156104dd578489015182556001820191506020850194506020810190506104b8565b868310156104fa57848901516104f6601f891682610403565b8355505b6001600288020188555050505b505050505050565b600073ffffffffffffffffffffffffffffffffffffffff82169050919050565b600061053a8261050f565b9050919050565b61054a8161052f565b82525050565b60006020820190506105656000830184610541565b92915050565b611f298061057a6000396000f3fe608060405234801561001057600080fd5b50600436106101215760003560e01c8063765ff061116100ad578063a9059cbb11610071578063a9059cbb1461030e578063c97c18f41461033e578063dd62ed3e1461035a578063ed4e7e061461038a578063f2fde38b146103bd57610121565b8063765ff061146102525780637fa2215a146102855780638da5cb5b146102a157806395d89b41146102bf5780639c1a1f9b146102dd57610121565b8063313ce567116100f4578063313ce567146101c257806340c10f19146101e057806356f5ac58146101fc57806370a0823114610218578063715018a61461024857610121565b806306fdde0314610126578063095ea7b31461014457806318160ddd1461017457806323b872dd14610192575b600080fd5b61012e6103d9565b60405161013b9190611512565b60405180910390f35b61015e600480360381019061015991906115dc565b61046b565b60405161016b9190611637565b60405180910390f35b61017c61048e565b6040516101899190611661565b60405180910390f35b6101ac60048036038101906101a7919061167c565b610498565b6040516101b99190611637565b60405180910390f35b6101ca6104c7565b6040516101d791906116eb565b60405180910390f35b6101fa60048036038101906101f591906115dc565b6104d0565b005b6102166004803603810190610211919061183b565b6104e6565b005b610232600480360381019061022d91906118c6565b610576565b60405161023f9190611661565b60405180910390f35b6102506105be565b005b61026c600480360381019061026791906118c6565b6105d2565b60405161027c94939291906118f3565b60405180910390f35b61029f600480360381019061029a91906118c6565b61071c565b005b6102a9610807565b6040516102b6919061194e565b60405180910390f35b6102c7610831565b6040516102d49190611512565b60405180910390f35b6102f760048036038101906102f291906118c6565b6108c3565b604051610305929190611969565b60405180910390f35b610328600480360381019061032391906115dc565b6109f7565b6040516103359190611637565b60405180910390f35b610358600480360381019061035391906119cc565b610a1a565b005b610374600480360381019061036f9190611a63565b610b35565b6040516103819190611661565b60405180910390f35b6103a4600480360381019061039f91906118c6565b610bbc565b6040516103b494939291906118f3565b60405180910390f35b6103d760048036038101906103d291906118c6565b610c8e565b005b6060600380546103e890611ad2565b80601f016020809104026020016040519081016040528092919081815260200182805461041490611ad2565b80156104615780601f1061043657610100808354040283529160200191610461565b820191906000526020600020905b81548152906001019060200180831161044457829003601f168201915b5050505050905090565b600080610476610d14565b9050610483818585610d1c565b600191505092915050565b6000600254905090565b6000806104a3610d14565b90506104b0858285610d2e565b6104bb858585610dc3565b60019150509392505050565b60006012905090565b6104d8610eb7565b6104e28282610f3e565b5050565b6104ee610eb7565b604051806040016040528083815260200182815250600760008573ffffffffffffffffffffffffffffffffffffffff1673ffffffffffffffffffffffffffffffffffffffff16815260200190815260200160002060008201518160000190816105579190611caf565b50602082015181600101908161056d9190611caf565b50905050505050565b60008060008373ffffffffffffffffffffffffffffffffffffffff1673ffffffffffffffffffffffffffffffffffffffff168152602001908152602001600020549050919050565b6105c6610eb7565b6105d06000610fc0565b565b6060600080600080600660008773ffffffffffffffffffffffffffffffffffffffff1673ffffffffffffffffffffffffffffffffffffffff16815260200190815260200160002060405180608001604052908160008201805461063490611ad2565b80601f016020809104026020016040519081016040528092919081815260200182805461066090611ad2565b80156106ad5780601f10610682576101008083540402835291602001916106ad565b820191906000526020600020905b81548152906001019060200180831161069057829003601f168201915b505050505081526020016001820160009054906101000a900460ff161515151581526020016001820160019054906101000a900460ff16151515158152602001600282015481525050905080600001518160200151826040015183606001519450945094509450509193509193565b610724610eb7565b6103e7600660008373ffffffffffffffffffffffffffffffffffffffff1673ffffffffffffffffffffffffffffffffffffffff16815260200190815260200160002060020154106107aa576040517f08c379a00000000000000000000000000000000000000000000000000000000081526004016107a190611dcd565b60405180910390fd5b6001600660008373ffffffffffffffffffffffffffffffffffffffff1673ffffffffffffffffffffffffffffffffffffffff16815260200190815260200160002060020160008282546107fd9190611e1c565b9250508190555050565b6000600560009054906101000a900473ffffffffffffffffffffffffffffffffffffffff16905090565b60606004805461084090611ad2565b80601f016020809104026020016040519081016040528092919081815260200182805461086c90611ad2565b80156108b95780601f1061088e576101008083540402835291602001916108b9565b820191906000526020600020905b81548152906001019060200180831161089c57829003601f168201915b5050505050905090565b60076020528060005260406000206000915090508060000180546108e690611ad2565b80601f016020809104026020016040519081016040528092919081815260200182805461091290611ad2565b801561095f5780601f106109345761010080835404028352916020019161095f565b820191906000526020600020905b81548152906001019060200180831161094257829003601f168201915b50505050509080600101805461097490611ad2565b80601f01602080910402602001604051908101604052809291908181526020018280546109a090611ad2565b80156109ed5780601f106109c2576101008083540402835291602001916109ed565b820191906000526020600020905b8154815290600101906020018083116109d057829003601f168201915b5050505050905082565b600080610a02610d14565b9050610a0f818585610dc3565b600191505092915050565b610a22610eb7565b6103e7811115610a67576040517f08c379a0000000000000000000000000000000000000000000000000000000008152600401610a5e90611e9c565b60405180910390fd5b60405180608001604052808581526020018415158152602001831515815260200182815250600660008773ffffffffffffffffffffffffffffffffffffffff1673ffffffffffffffffffffffffffffffffffffffff1681526020019081526020016000206000820151816000019081610ae09190611caf565b5060208201518160010160006101000a81548160ff02191690831515021790555060408201518160010160016101000a81548160ff021916908315150217905550606082015181600201559050505050505050565b6000600160008473ffffffffffffffffffffffffffffffffffffffff1673ffffffffffffffffffffffffffffffffffffffff16815260200190815260200160002060008373ffffffffffffffffffffffffffffffffffffffff1673ffffffffffffffffffffffffffffffffffffffff16815260200190815260200160002054905092915050565b6006602052806000526040600020600091509050806000018054610bdf90611ad2565b80601f0160208091040260200160405190810160405280929190818152602001828054610c0b90611ad2565b8015610c585780601f10610c2d57610100808354040283529160200191610c58565b820191906000526020600020905b815481529060010190602001808311610c3b57829003601f168201915b5050505050908060010160009054906101000a900460ff16908060010160019054906101000a900460ff16908060020154905084565b610c96610eb7565b600073ffffffffffffffffffffffffffffffffffffffff168173ffffffffffffffffffffffffffffffffffffffff1603610d085760006040517f1e4fbdf7000000000000000000000000000000000000000000000000000000008152600401610cff919061194e565b60405180910390fd5b610d1181610fc0565b50565b600033905090565b610d298383836001611086565b505050565b6000610d3a8484610b35565b90507fffffffffffffffffffffffffffffffffffffffffffffffffffffffffffffffff811015610dbd5781811015610dad578281836040517ffb8f41b2000000000000000000000000000000000000000000000000000000008152600401610da493929190611ebc565b60405180910390fd5b610dbc84848484036000611086565b5b50505050565b600073ffffffffffffffffffffffffffffffffffffffff168373ffffffffffffffffffffffffffffffffffffffff1603610e355760006040517f96c6fd1e000000000000000000000000000000000000000000000000000000008152600401610e2c919061194e565b60405180910390fd5b600073ffffffffffffffffffffffffffffffffffffffff168273ffffffffffffffffffffffffffffffffffffffff1603610ea75760006040517fec442f05000000000000000000000000000000000000000000000000000000008152600401610e9e919061194e565b60405180910390fd5b610eb283838361125d565b505050565b610ebf610d14565b73ffffffffffffffffffffffffffffffffffffffff16610edd610807565b73ffffffffffffffffffffffffffffffffffffffff1614610f3c57610f00610d14565b6040517f118cdaa7000000000000000000000000000000000000000000000000000000008152600401610f33919061194e565b60405180910390fd5b565b600073ffffffffffffffffffffffffffffffffffffffff168273ffffffffffffffffffffffffffffffffffffffff1603610fb05760006040517fec442f05000000000000000000000000000000000000000000000000000000008152600401610fa7919061194e565b60405180910390fd5b610fbc6000838361125d565b5050565b6000600560009054906101000a900473ffffffffffffffffffffffffffffffffffffffff16905081600560006101000a81548173ffffffffffffffffffffffffffffffffffffffff021916908373ffffffffffffffffffffffffffffffffffffffff1602179055508173ffffffffffffffffffffffffffffffffffffffff168173ffffffffffffffffffffffffffffffffffffffff167f8be0079c531659141344cd1fd0a4f28419497f9722a3daafe3b4186f6b6457e060405160405180910390a35050565b600073ffffffffffffffffffffffffffffffffffffffff168473ffffffffffffffffffffffffffffffffffffffff16036110f85760006040517fe602df050000000000000000000000000000000000000000000000000000000081526004016110ef919061194e565b60405180910390fd5b600073ffffffffffffffffffffffffffffffffffffffff168373ffffffffffffffffffffffffffffffffffffffff160361116a5760006040517f94280d62000000000000000000000000000000000000000000000000000000008152600401611161919061194e565b60405180910390fd5b81600160008673ffffffffffffffffffffffffffffffffffffffff1673ffffffffffffffffffffffffffffffffffffffff16815260200190815260200160002060008573ffffffffffffffffffffffffffffffffffffffff1673ffffffffffffffffffffffffffffffffffffffff168152602001908152602001600020819055508015611257578273ffffffffffffffffffffffffffffffffffffffff168473ffffffffffffffffffffffffffffffffffffffff167f8c5be1e5ebec7d5bd14f71427d1e84f3dd0314c0f7b2291e5b200ac8c7c3b9258460405161124e9190611661565b60405180910390a35b50505050565b600073ffffffffffffffffffffffffffffffffffffffff168373ffffffffffffffffffffffffffffffffffffffff16036112af5780600260008282546112a39190611e1c565b92505081905550611382565b60008060008573ffffffffffffffffffffffffffffffffffffffff1673ffffffffffffffffffffffffffffffffffffffff1681526020019081526020016000205490508181101561133b578381836040517fe450d38c00000000000000000000000000000000000000000000000000000000815260040161133293929190611ebc565b60405180910390fd5b8181036000808673ffffffffffffffffffffffffffffffffffffffff1673ffffffffffffffffffffffffffffffffffffffff16815260200190815260200160002081905550505b600073ffffffffffffffffffffffffffffffffffffffff168273ffffffffffffffffffffffffffffffffffffffff16036113cb5780600260008282540392505081905550611418565b806000808473ffffffffffffffffffffffffffffffffffffffff1673ffffffffffffffffffffffffffffffffffffffff168152602001908152602001600020600082825401925050819055505b8173ffffffffffffffffffffffffffffffffffffffff168373ffffffffffffffffffffffffffffffffffffffff167fddf252ad1be2c89b69c2b068fc378daa952ba7f163c4a11628f55a4df523b3ef836040516114759190611661565b60405180910390a3505050565b600081519050919050565b600082825260208201905092915050565b60005b838110156114bc5780820151818401526020810190506114a1565b60008484015250505050565b6000601f19601f8301169050919050565b60006114e482611482565b6114ee818561148d565b93506114fe81856020860161149e565b611507816114c8565b840191505092915050565b6000602082019050818103600083015261152c81846114d9565b905092915050565b6000604051905090565b600080fd5b600080fd5b600073ffffffffffffffffffffffffffffffffffffffff82169050919050565b600061157382611548565b9050919050565b61158381611568565b811461158e57600080fd5b50565b6000813590506115a08161157a565b92915050565b6000819050919050565b6115b9816115a6565b81146115c457600080fd5b50565b6000813590506115d6816115b0565b92915050565b600080604083850312156115f3576115f261153e565b5b600061160185828601611591565b9250506020611612858286016115c7565b9150509250929050565b60008115159050919050565b6116318161161c565b82525050565b600060208201905061164c6000830184611628565b92915050565b61165b816115a6565b82525050565b60006020820190506116766000830184611652565b92915050565b6000806000606084860312156116955761169461153e565b5b60006116a386828701611591565b93505060206116b486828701611591565b92505060406116c5868287016115c7565b9150509250925092565b600060ff82169050919050565b6116e5816116cf565b82525050565b600060208201905061170060008301846116dc565b92915050565b600080fd5b600080fd5b7f4e487b7100000000000000000000000000000000000000000000000000000000600052604160045260246000fd5b611748826114c8565b810181811067ffffffffffffffff8211171561176757611766611710565b5b80604052505050565b600061177a611534565b9050611786828261173f565b919050565b600067ffffffffffffffff8211156117a6576117a5611710565b5b6117af826114c8565b9050602081019050919050565b82818337600083830152505050565b60006117de6117d98461178b565b611770565b9050828152602081018484840111156117fa576117f961170b565b5b6118058482856117bc565b509392505050565b600082601f83011261182257611821611706565b5b81356118328482602086016117cb565b91505092915050565b6000806000606084860312156118545761185361153e565b5b600061186286828701611591565b935050602084013567ffffffffffffffff81111561188357611882611543565b5b61188f8682870161180d565b925050604084013567ffffffffffffffff8111156118b0576118af611543565b5b6118bc8682870161180d565b9150509250925092565b6000602082840312156118dc576118db61153e565b5b60006118ea84828501611591565b91505092915050565b6000608082019050818103600083015261190d81876114d9565b905061191c6020830186611628565b6119296040830185611628565b6119366060830184611652565b95945050505050565b61194881611568565b82525050565b6000602082019050611963600083018461193f565b92915050565b6000604082019050818103600083015261198381856114d9565b9050818103602083015261199781846114d9565b90509392505050565b6119a98161161c565b81146119b457600080fd5b50565b6000813590506119c6816119a0565b92915050565b600080600080600060a086880312156119e8576119e761153e565b5b60006119f688828901611591565b955050602086013567ffffffffffffffff811115611a1757611a16611543565b5b611a238882890161180d565b9450506040611a34888289016119b7565b9350506060611a45888289016119b7565b9250506080611a56888289016115c7565b9150509295509295909350565b60008060408385031215611a7a57611a7961153e565b5b6000611a8885828601611591565b9250506020611a9985828601611591565b9150509250929050565b7f4e487b7100000000000000000000000000000000000000000000000000000000600052602260045260246000fd5b60006002820490506001821680611aea57607f821691505b602082108103611afd57611afc611aa3565b5b50919050565b60008190508160005260206000209050919050565b60006020601f8301049050919050565b600082821b905092915050565b600060088302611b657fffffffffffffffffffffffffffffffffffffffffffffffffffffffffffffffff82611b28565b611b6f8683611b28565b95508019841693508086168417925050509392505050565b6000819050919050565b6000611bac611ba7611ba2846115a6565b611b87565b6115a6565b9050919050565b6000819050919050565b611bc683611b91565b611bda611bd282611bb3565b848454611b35565b825550505050565b600090565b611bef611be2565b611bfa818484611bbd565b505050565b5b81811015611c1e57611c13600082611be7565b600181019050611c00565b5050565b601f821115611c6357611c3481611b03565b611c3d84611b18565b81016020851015611c4c578190505b611c60611c5885611b18565b830182611bff565b50505b505050565b600082821c905092915050565b6000611c8660001984600802611c68565b1980831691505092915050565b6000611c9f8383611c75565b9150826002028217905092915050565b611cb882611482565b67ffffffffffffffff811115611cd157611cd0611710565b5b611cdb8254611ad2565b611ce6828285611c22565b600060209050601f831160018114611d195760008415611d07578287015190505b611d118582611c93565b865550611d79565b601f198416611d2786611b03565b60005b82811015611d4f57848901518255600182019150602085019450602081019050611d2a565b86831015611d6c5784890151611d68601f891682611c75565b8355505b6001600288020188555050505b505050505050565b7f4d6178696d756d20617474656e64616e63652072656163686564000000000000600082015250565b6000611db7601a8361148d565b9150611dc282611d81565b602082019050919050565b60006020820190508181036000830152611de681611daa565b9050919050565b7f4e487b7100000000000000000000000000000000000000000000000000000000600052601160045260246000fd5b6000611e27826115a6565b9150611e32836115a6565b9250828201905080821115611e4a57611e49611ded565b5b92915050565b7f417474656e64616e6365206f7574206f662072616e6765000000000000000000600082015250565b6000611e8660178361148d565b9150611e9182611e50565b602082019050919050565b60006020820190508181036000830152611eb581611e79565b9050919050565b6000606082019050611ed1600083018661193f565b611ede6020830185611652565b611eeb6040830184611652565b94935050505056fea26469706673582212209669a26b53a63253bb76b4079d87bc225235e4d078cca6b1cc3de79410d68ffe64736f6c634300081c0033",
  "linkReferences": {},
  "deployedLinkReferences": {}
}